{
  "_format": "hh-sol-artifact-1",
  "contractName": "CampaignFactory",
  "sourceName": "contracts/Campaign.sol",
  "abi": [
    {
      "inputs": [
        {
          "internalType": "uint256",
          "name": "minimum",
          "type": "uint256"
        }
      ],
      "name": "creatCampaign",
      "outputs": [],
      "stateMutability": "nonpayable",
      "type": "function"
    },
    {
      "inputs": [
        {
          "internalType": "uint256",
          "name": "",
          "type": "uint256"
        }
      ],
      "name": "deployedCampaign",
      "outputs": [
        {
          "internalType": "address",
          "name": "",
          "type": "address"
        }
      ],
      "stateMutability": "view",
      "type": "function"
    },
    {
      "inputs": [],
      "name": "getDeployedCampaign",
      "outputs": [
        {
          "internalType": "address[]",
          "name": "",
          "type": "address[]"
        }
      ],
      "stateMutability": "view",
      "type": "function"
    }
  ],
  "bytecode": "0x608060405234801561001057600080fd5b50611717806100206000396000f3fe608060405234801561001057600080fd5b50600436106100415760003560e01c8063146c8a4a146100465780635eac000714610062578063b7ccb9ab14610080575b600080fd5b610060600480360381019061005b9190610266565b6100b0565b005b61006a610151565b6040516100779190610383565b60405180910390f35b61009a60048036038101906100959190610266565b6101df565b6040516100a791906103b4565b60405180910390f35b600081336040516100c09061021e565b6100cb9291906103de565b604051809103906000f0801580156100e7573d6000803e3d6000fd5b5090506000819080600181540180825580915050600190039060005260206000200160009091909190916101000a81548173ffffffffffffffffffffffffffffffffffffffff021916908373ffffffffffffffffffffffffffffffffffffffff1602179055505050565b606060008054806020026020016040519081016040528092919081815260200182805480156101d557602002820191906000526020600020905b8160009054906101000a900473ffffffffffffffffffffffffffffffffffffffff1673ffffffffffffffffffffffffffffffffffffffff168152602001906001019080831161018b575b5050505050905090565b600081815481106101ef57600080fd5b906000526020600020016000915054906101000a900473ffffffffffffffffffffffffffffffffffffffff1681565b6112da8061040883390190565b600080fd5b6000819050919050565b61024381610230565b811461024e57600080fd5b50565b6000813590506102608161023a565b92915050565b60006020828403121561027c5761027b61022b565b5b600061028a84828501610251565b91505092915050565b600081519050919050565b600082825260208201905092915050565b6000819050602082019050919050565b600073ffffffffffffffffffffffffffffffffffffffff82169050919050565b60006102ea826102bf565b9050919050565b6102fa816102df565b82525050565b600061030c83836102f1565b60208301905092915050565b6000602082019050919050565b600061033082610293565b61033a818561029e565b9350610345836102af565b8060005b8381101561037657815161035d8882610300565b975061036883610318565b925050600181019050610349565b5085935050505092915050565b6000602082019050818103600083015261039d8184610325565b905092915050565b6103ae816102df565b82525050565b60006020820190506103c960008301846103a5565b92915050565b6103d881610230565b82525050565b60006040820190506103f360008301856103cf565b61040060208301846103a5565b939250505056fe60806040526000805560006001553480156200001a57600080fd5b50604051620012da380380620012da833981810160405281019062000040919062000135565b80600560006101000a81548173ffffffffffffffffffffffffffffffffffffffff021916908373ffffffffffffffffffffffffffffffffffffffff1602179055508160068190555050506200017c565b600080fd5b6000819050919050565b620000aa8162000095565b8114620000b657600080fd5b50565b600081519050620000ca816200009f565b92915050565b600073ffffffffffffffffffffffffffffffffffffffff82169050919050565b6000620000fd82620000d0565b9050919050565b6200010f81620000f0565b81146200011b57600080fd5b50565b6000815190506200012f8162000104565b92915050565b600080604083850312156200014f576200014e62000090565b5b60006200015f85828601620000b9565b925050602062000172858286016200011e565b9150509250929050565b61114e806200018c6000396000f3fe6080604052600436106100c25760003560e01c806381d12c581161007f578063b1b1643111610059578063b1b1643114610261578063d7bb99ba1461028c578063d7d1bbdb14610296578063f146b3d0146102bf576100c2565b806381d12c58146101ca57806382fde0931461020b578063937e09b114610236576100c2565b806303441006146100c75780630a144391146100e357806312ed032b14610120578063161b643d1461014b5780633fad183414610174578063481c6a751461019f575b600080fd5b6100e160048036038101906100dc91906108f3565b6102ee565b005b3480156100ef57600080fd5b5061010a6004803603810190610105919061097e565b610429565b60405161011791906109c6565b60405180910390f35b34801561012c57600080fd5b50610135610449565b60405161014291906109f0565b60405180910390f35b34801561015757600080fd5b50610172600480360381019061016d9190610b8f565b61044f565b005b34801561018057600080fd5b50610189610578565b60405161019691906109f0565b60405180910390f35b3480156101ab57600080fd5b506101b4610582565b6040516101c19190610c0d565b60405180910390f35b3480156101d657600080fd5b506101f160048036038101906101ec91906108f3565b6105a8565b604051610202959493929190610cb6565b60405180910390f35b34801561021757600080fd5b50610220610693565b60405161022d91906109f0565b60405180910390f35b34801561024257600080fd5b5061024b610699565b60405161025891906109f0565b60405180910390f35b34801561026d57600080fd5b5061027661069f565b60405161028391906109f0565b60405180910390f35b6102946106a5565b005b3480156102a257600080fd5b506102bd60048036038101906102b891906108f3565b610725565b005b3480156102cb57600080fd5b506102d4610863565b6040516102e5959493929190610d10565b60405180910390f35b600560009054906101000a900473ffffffffffffffffffffffffffffffffffffffff1673ffffffffffffffffffffffffffffffffffffffff163373ffffffffffffffffffffffffffffffffffffffff161461034857600080fd5b6000600260008381526020019081526020016000209050600260045461036e9190610dc1565b81600301541161037d57600080fd5b8060020160149054906101000a900460ff161561039957600080fd5b8060020160009054906101000a900473ffffffffffffffffffffffffffffffffffffffff1673ffffffffffffffffffffffffffffffffffffffff166108fc82600101549081150290604051600060405180830381858888f19350505050158015610407573d6000803e3d6000fd5b5060018160020160146101000a81548160ff0219169083151502179055505050565b60036020528060005260406000206000915054906101000a900460ff1681565b60015481565b600560009054906101000a900473ffffffffffffffffffffffffffffffffffffffff1673ffffffffffffffffffffffffffffffffffffffff163373ffffffffffffffffffffffffffffffffffffffff16146104a957600080fd5b6000600260008060008154809291906104c190610df2565b9190505581526020019081526020016000209050838160000190816104e69190611046565b50828160010181905550818160020160006101000a81548173ffffffffffffffffffffffffffffffffffffffff021916908373ffffffffffffffffffffffffffffffffffffffff16021790555060008160020160146101000a81548160ff021916908315150217905550600081600301819055506001600081548092919061056d90610df2565b919050555050505050565b6000600154905090565b600560009054906101000a900473ffffffffffffffffffffffffffffffffffffffff1681565b60026020528060005260406000206000915090508060000180546105cb90610e69565b80601f01602080910402602001604051908101604052809291908181526020018280546105f790610e69565b80156106445780601f1061061957610100808354040283529160200191610644565b820191906000526020600020905b81548152906001019060200180831161062757829003601f168201915b5050505050908060010154908060020160009054906101000a900473ffffffffffffffffffffffffffffffffffffffff16908060020160149054906101000a900460ff16908060030154905085565b60045481565b60065481565b60005481565b60065434116106b357600080fd5b6001600360003373ffffffffffffffffffffffffffffffffffffffff1673ffffffffffffffffffffffffffffffffffffffff16815260200190815260200160002060006101000a81548160ff0219169083151502179055506004600081548092919061071e90610df2565b9190505550565b6000600260008381526020019081526020016000209050600360003373ffffffffffffffffffffffffffffffffffffffff1673ffffffffffffffffffffffffffffffffffffffff16815260200190815260200160002060009054906101000a900460ff1661079257600080fd5b8060040160003373ffffffffffffffffffffffffffffffffffffffff1673ffffffffffffffffffffffffffffffffffffffff16815260200190815260200160002060009054906101000a900460ff16156107eb57600080fd5b60018160040160003373ffffffffffffffffffffffffffffffffffffffff1673ffffffffffffffffffffffffffffffffffffffff16815260200190815260200160002060006101000a81548160ff02191690831515021790555080600301600081548092919061085a90610df2565b91905055505050565b600080600080600060065447600154600454600560009054906101000a900473ffffffffffffffffffffffffffffffffffffffff16945094509450945094509091929394565b6000604051905090565b600080fd5b600080fd5b6000819050919050565b6108d0816108bd565b81146108db57600080fd5b50565b6000813590506108ed816108c7565b92915050565b600060208284031215610909576109086108b3565b5b6000610917848285016108de565b91505092915050565b600073ffffffffffffffffffffffffffffffffffffffff82169050919050565b600061094b82610920565b9050919050565b61095b81610940565b811461096657600080fd5b50565b60008135905061097881610952565b92915050565b600060208284031215610994576109936108b3565b5b60006109a284828501610969565b91505092915050565b60008115159050919050565b6109c0816109ab565b82525050565b60006020820190506109db60008301846109b7565b92915050565b6109ea816108bd565b82525050565b6000602082019050610a0560008301846109e1565b92915050565b600080fd5b600080fd5b6000601f19601f8301169050919050565b7f4e487b7100000000000000000000000000000000000000000000000000000000600052604160045260246000fd5b610a5e82610a15565b810181811067ffffffffffffffff82111715610a7d57610a7c610a26565b5b80604052505050565b6000610a906108a9565b9050610a9c8282610a55565b919050565b600067ffffffffffffffff821115610abc57610abb610a26565b5b610ac582610a15565b9050602081019050919050565b82818337600083830152505050565b6000610af4610aef84610aa1565b610a86565b905082815260208101848484011115610b1057610b0f610a10565b5b610b1b848285610ad2565b509392505050565b600082601f830112610b3857610b37610a0b565b5b8135610b48848260208601610ae1565b91505092915050565b6000610b5c82610920565b9050919050565b610b6c81610b51565b8114610b7757600080fd5b50565b600081359050610b8981610b63565b92915050565b600080600060608486031215610ba857610ba76108b3565b5b600084013567ffffffffffffffff811115610bc657610bc56108b8565b5b610bd286828701610b23565b9350506020610be3868287016108de565b9250506040610bf486828701610b7a565b9150509250925092565b610c0781610940565b82525050565b6000602082019050610c226000830184610bfe565b92915050565b600081519050919050565b600082825260208201905092915050565b60005b83811015610c62578082015181840152602081019050610c47565b60008484015250505050565b6000610c7982610c28565b610c838185610c33565b9350610c93818560208601610c44565b610c9c81610a15565b840191505092915050565b610cb081610b51565b82525050565b600060a0820190508181036000830152610cd08188610c6e565b9050610cdf60208301876109e1565b610cec6040830186610ca7565b610cf960608301856109b7565b610d0660808301846109e1565b9695505050505050565b600060a082019050610d2560008301886109e1565b610d3260208301876109e1565b610d3f60408301866109e1565b610d4c60608301856109e1565b610d596080830184610bfe565b9695505050505050565b7f4e487b7100000000000000000000000000000000000000000000000000000000600052601260045260246000fd5b7f4e487b7100000000000000000000000000000000000000000000000000000000600052601160045260246000fd5b6000610dcc826108bd565b9150610dd7836108bd565b925082610de757610de6610d63565b5b828204905092915050565b6000610dfd826108bd565b91507fffffffffffffffffffffffffffffffffffffffffffffffffffffffffffffffff8203610e2f57610e2e610d92565b5b600182019050919050565b7f4e487b7100000000000000000000000000000000000000000000000000000000600052602260045260246000fd5b60006002820490506001821680610e8157607f821691505b602082108103610e9457610e93610e3a565b5b50919050565b60008190508160005260206000209050919050565b60006020601f8301049050919050565b600082821b905092915050565b600060088302610efc7fffffffffffffffffffffffffffffffffffffffffffffffffffffffffffffffff82610ebf565b610f068683610ebf565b95508019841693508086168417925050509392505050565b6000819050919050565b6000610f43610f3e610f39846108bd565b610f1e565b6108bd565b9050919050565b6000819050919050565b610f5d83610f28565b610f71610f6982610f4a565b848454610ecc565b825550505050565b600090565b610f86610f79565b610f91818484610f54565b505050565b5b81811015610fb557610faa600082610f7e565b600181019050610f97565b5050565b601f821115610ffa57610fcb81610e9a565b610fd484610eaf565b81016020851015610fe3578190505b610ff7610fef85610eaf565b830182610f96565b50505b505050565b600082821c905092915050565b600061101d60001984600802610fff565b1980831691505092915050565b6000611036838361100c565b9150826002028217905092915050565b61104f82610c28565b67ffffffffffffffff81111561106857611067610a26565b5b6110728254610e69565b61107d828285610fb9565b600060209050601f8311600181146110b0576000841561109e578287015190505b6110a8858261102a565b865550611110565b601f1984166110be86610e9a565b60005b828110156110e6578489015182556001820191506020850194506020810190506110c1565b8683101561110357848901516110ff601f89168261100c565b8355505b6001600288020188555050505b50505050505056fea26469706673582212204f0922ede92a0989ac7e93a744372141544bf9e5ef4127334031d2a97fd1d54d64736f6c63430008110033a264697066735822122062fe412eb4e644137bdd391e3440f5967f6a13831f0f90131b38c014db94067464736f6c63430008110033",
  "linkReferences": {},
  "deployedLinkReferences": {}
}